:020000040800F2
:10000000E0050020ED010008A1330008A12D000843
:100010009D33000875090008234600080000000011
:10002000000000000000000000000000393A000855
:100030007909000800000000A53300083B3A0008D9
:10004000070200080702000807020008070200086C
:10005000070200080702000807020008070200085C
:10006000070200080702000807020008070200084C
:10007000070200080702000807020008070200083C
:10008000070200080000000007020008070200083D
:10009000070200080702000807020008070200081C
:1000A000070200080702000807020008070200080C
:1000B00007020008070200080702000807020008FC
:1000C00007020008070200080702000807020008EC
:1000D00007020008070200080702000807020008DC
:1000E00007020008070200080702000807020008CC
:1000F00007020008070200080702000800000000CD
:1001000000000000070200080000000007020008CD
:100110000702000800000000C53A000807020008B6
:10012000070200080702000807020008070200088B
:10013000070200080000000000000000070200089D
:10014000070200080702000800000000000000008D
:10015000000000000000000000000000000000009F
:10016000000000000000000000000000070200087E
:10017000070200080000000000000000000000006E
:10018000000000000702000800000000000000005E
:10019000000000000000000000000000000000005F
:1001A000000000000000000007020008070200082D
:1001B000070200080702000807020008000000000C
:1001C000000000000702000800000000000000001E
:1001D0000702000807020008DFF80CD000F01EFB41
:1001E00000480047695A0008E0050020064880479B
:1001F00006480047FEE7FEE7FEE7FEE7FEE7FEE70C
:10020000FEE7FEE7FEE7FEE7B13A0008D901000885
:100210002DE9F05F0546002092469B46884606463B
:10022000814640241BE0284641464746224600F0CE
:1002300026FA53465A46C01A914110D31146184621
:10024000224600F00DFA2D1A67EB01084F462246B0
:100250000120002100F004FA17EB00094E41201E96
:10026000A4F10104DFDC484631462A464346BDE896
:10027000F09FD2B201E000F8012B491EFBD270477B
:100280000022F6E710B513460A4604461946FFF762
:10029000F0FF204610BD2DE9FE4F804681EA0300A5
:1002A000C00F0C46009021F0004123F00045B8EB50
:1002B0000200A94105D24046214690461C460B4605
:1002C000024623F00040104347D0270DC7F30A0031
:1002D000C3F30A510290401A019040286BDAC3F32D
:1002E000130040F4801B0098924620B10023D2EB0B
:1002F000030A63EB0B0B01985946C0F140025046CC
:1003000000F0AEF906460D4650465946019A00F0F7
:10031000C6F910EB08006141002487EA115284EA13
:10032000E7731A4340D0009A62B3019A012A4FEA58
:10033000075215DC001B61EB02014FF0004202EA9C
:100340000752CDE90042001C41F5801132462B4690
:1003500000F0FDF903B0BDE8F08F40462146F9E713
:10036000001B61EB0201001C41F5801300185B418A
:100370002018A2F5001747EB030140EAD570B61923
:100380006D4111E06D084FEA360645EAC0754FEA47
:100390000752001B61EB0201001C41F58011490866
:1003A0004FEA30000019514132462B4603B0BDE8F8
:1003B000F04F00F0BDB90098012240000023D0EBBF
:1003C000020263EBE073009821464FEAE074B8EB59
:1003D000000061EB0401E9E783F000435BE781F093
:1003E000004158E72DE9FE4F81EA030404F0004480
:1003F00021F0004100944FF0000B23F0004350EA3D
:1004000001045ED052EA03045BD0C3F30A54C1F383
:100410000A552C44A4F2F3340194A0FB0254C1F316
:10042000130141F48011C3F3130343F4801301FB60
:10043000024400FB034E840A970A44EA815447EAC7
:100440008357A4FB076802958D0A05FB07854FEAD1
:10045000932C04FB0C542705029D4FEA065847EAEB
:100460001637B5EB08056EEB070C870E920E47EAC0
:10047000811742EA8312A7FB0201B6EB0B0164EB82
:1004800000042B0D43EA0C335E1844EB1C50DA4693
:100490005146E7FB0201C5F313044FEA0B3343EA6D
:1004A00014534FEA0432019C43EA0603A4F10C04FE
:1004B0000294009CCDE900B400F049F903B0BDE816
:1004C000F08F00200146F9E72DE9F04D81EA0304A1
:1004D00004F0004B21F0004514464FF0000A23F0D1
:1004E000004150EA050220D054EA01021DD0C5F3B4
:1004F0000A570246C5F31303C1F31300C1F30A56AA
:1005000040F4801543F48013A7EB0608101BD64671
:1005100008F2FD3873EB050002D308F1010801E091
:1005200092185B41B8F1000F03DA00200146BDE8E4
:10053000F08D00204FF48011064684460EE0171B14
:1005400073EB050705D3121B63EB050306434CEA67
:10055000010C49084FEA300092185B4150EA01074C
:10056000EDD152EA030012D082EA040083EA0501C9
:10057000084305D0101BAB4106D20122002306E040
:1005800000224FF0004302E06FF0010253101AEB1B
:1005900006004CEB085110EB0A0041EB0B01BDE8E3
:1005A000F04D00F0C5B800F0004230F000400AD035
:1005B000C10D01F56071C0F3160042EA0151C20895
:1005C00040071143704700200146704730B5041EB4
:1005D00071F1000404DB4FF00044404264EB010180
:1005E000141E73F1000405DB1C464FF00043524219
:1005F00063EB0403994208BF904230BD01F0004311
:1006000030B421F0004150EA010206D00A0DA2F5F3
:100610006072C1F31301002A02DC30BC0020704775
:10062000440F44EAC104C100E01830BC00EBC250E2
:1006300000F047B830B50B460146002020220124C7
:1006400009E021FA02F59D4205D303FA02F5491BA0
:1006500004FA02F52844151EA2F10102F1DC30BDB6
:10066000202A04DB203A00FA02F100207047914072
:10067000C2F1200320FA03F3194390407047202A67
:1006800004DB203A21FA02F00021704721FA02F33C
:10069000D040C2F120029140084319467047202AF9
:1006A00006DBCB17203A41FA02F043EAE07306E09A
:1006B00041FA02F3D040C2F12002914008431946AA
:1006C00070470029A8BF7047401C490008BF20F0B0
:1006D0000100704710B4B0FA80FC00FA0CF050EA48
:1006E000010404BF10BC704749B1CCF1200421FAC9
:1006F00004F411FA0CF118BF012121430843A3EBC4
:100700000C01CB1D4FEA00614FEA102042BF0020D0
:1007100010BC704700EBC35010440029A4BF10BCAC
:100720007047401C490008BF20F0010010BC704712
:1007300010B5141E73F1000408DA401C41F10001E9
:1007400092185B411A4301D120F0010010BD2DE940
:10075000F04D92469B4611B1B1FA81F202E0B0FA37
:1007600080F220329046FFF77BFF04460F4640EAB6
:100770000A0041EA0B0153465A46084313D011467A
:1007800053EA010019D0C8F140025046FFF777FF45
:1007900005460E46504659464246FFF761FF08435C
:1007A00005D0012004E020463946BDE8F08D002048
:1007B000054346EAE0762C4337430A986305E40A8A
:1007C000A0EB08000022FD0A44EA47540A3002D593
:1007D00000200146E9E7010510196941DDE90845F6
:1007E00000196941BDE8F04DA2E7C1F30A52C1F317
:1007F000130140F2FF3341F480119A4202DA0020E3
:100800000146704740F233439A42A2F2334202DC7F
:100810005242FFF734BFFFF723BF0000064C074DDD
:1008200006E0E06840F0010394E8070098471034C0
:10083000AC42F6D3FFF7D4FCC05E0008E05E0008CF
:100840002DE9F04D00231A461B1A8A4103DB0020D4
:100850000146BDE8F08DC1F30A52C1F3130141F422
:1008600080154FF0000BD10702D100186D41521EC8
:100870000027044640F2FF11384601EB620A3E466B
:100880008046024600204FF48011FFF7F8FEC2199F
:100890007141BB1846EB0100B4EB030C75EB000C87
:1008A00004D3E41A65EB000517460E46241908F137
:1008B00001006D4180463428E3DDF91946EB06005E
:1008C000091BA84103D24FF0FF32134601E000227A
:1008D00013461BEB070046EB0A51BDE8F04DFFF74E
:1008E00027BF000010B501220421184800F042F98A
:1008F0000A2000F045F8B6217E2003F093FF322055
:1009000000F03EF804217D2003F08CFF00217C20C4
:1009100003F088FF0021412003F084FF8C21402058
:1009200003F080FFB621142003F0B0FF322000F066
:1009300027F80021112003F0A9FF00210F2003F068
:10094000A5FF0221102003F0A1FF10BD0004004804
:1009500010B50024FFF7C6FF03F065FE044303F063
:100960001BFF044303F06CFE044303F022FF044327
:10097000204610BD00BFFEE7704772B600BFFEE71D
:1009800070B5044600F0FCF806462546681C10B118
:1009900004480068054400BF00F0F2F8801BA8423C
:1009A000FAD370BD4400002078B502460B46002102
:1009B000CAE001268E401D6805EA0604002C73D0AB
:1009C0001D7905F00305012D04D01D7905F00305FF
:1009D000022D13D190684E000325B540A8434E0068
:1009E000DD68B54028439060506801258D40A843DC
:1009F0001D79C5F300158D40284350601D7905F021
:100A00000305032D09D0D0684E000325B540A84347
:100A10004E009D68B5402843D0601D7905F0030560
:100A2000022D13D1CE0802F1200555F826004D07FE
:100A3000EE0E0F25B540A8434E07F60E1D69B540D2
:100A40002843CE0802F1200545F8260010684E0024
:100A50000325B540A8431D7905F003054E00B540B8
:100A6000284310605D6805F44035002D6BD000BF51
:100A7000384D2D6E45F00105364E356635462D6EE6
:100A800005F00105009500BF00BF4FEAB6358E089E
:100A900055F826008D072E0F0F25B540A843B2F15B
:100AA000904F02D100251AE04DE02B4DAA4201D112
:100AB000012514E0294DAA4201D102250FE0284D5D
:100AC000AA4201D103250AE0264DAA4201D10425FC
:100AD00005E0254DAA4201D1052500E006258E0737
:100AE000360FB5402843214D8E0845F82600204D8D
:100AF0002868A0435D6805F4801505B120431C4DAE
:100B000028602D1D2868A0435D6805F4001505B117
:100B10002043174D2D1D2860154D2D1F2868A0431B
:100B20005D6805F4003505B12043114D2D1F286087
:100B30002D1F2868A0435D6805F4803505B120436A
:100B40000B4D083D2860491C1D68CD40002D7FF4E9
:100B500030AF78BD00100240000400480008004893
:100B6000000C004800100048001400480800014034
:100B7000080401400AB1816100E081627047000011
:100B800001480068704700003C00002003480068EE
:100B90000349096808440149086070473C00002087
:100BA0004400002010B50024032000F0ABF80F2013
:100BB00000F008F808B1012401E000F02FF8204609
:100BC00010BD000070B50446002511480068D8B17A
:100BD0000F4800684FF47A71B1FBF0F00D490968D5
:100BE000B1FBF0F6304601F00DFB58B9102C07D2DE
:100BF00000222146501E00F047F80748046004E038
:100C0000012502E0012500E00125284670BD000015
:100C100044000020480000204000002008B500BF2C
:100C20000E48006E40F001000C4908660846006E50
:100C300000F00100009000BF00BF00BF0846806DBB
:100C400040F0805088650846806D00F0805000902C
:100C500000BF00BF00F0F6F808BD00000010024021
:100C60000146084600280DDB00BF00BF00F01F034F
:100C700001229A4043099B0003F1E023C3F80021BD
:100C800000BF00BF00BF70472DE9F05F80460D46F2
:100C9000164603F057FE074639462A46334601F00A
:100CA0000700C0F1070ABAF1040F02D94FF0040A95
:100CB00001E0C0F1070AD14600F1040ABAF1070FBA
:100CC00002D24FF0000A01E0A0F1030AD4464FF02F
:100CD000010A0AFA09FAAAF1010A0AEA020A0AFA58
:100CE0000CFA4FF0010B0BFA0CFBABF1010B0BEA0A
:100CF000030B4AEA0B042146404603F02BFEBDE8F5
:100D0000F09F000000BF00F00702064B19684FF685
:100D1000FF031940044B0B4343EA0221014B1960C6
:100D200000BF70470CED00E00000FA0502468ABBE8
:100D30004148006800F4C060B0F5806F2BD13E4898
:100D40008030006820F480703B4BC3F88000184668
:100D5000006820F4C06040F40070186037480068F4
:100D600032235843364BB0FBF3F0411C00E0491EE0
:100D70003148406900F48060B0F5806F01D10029EE
:100D8000F5D12D48406900F48060B0F5806F51D1F5
:100D90000320704708E028488030006820F4807005
:100DA000254BC3F8800045E0B2F5007F3AD12248D8
:100DB000006800F4C060B0F5806F2AD11E48803012
:100DC000006840F480701C4BC3F88000184600682F
:100DD00020F4C06040F400701860184800683223A6
:100DE0005843174BB0FBF3F0411C00E0491E12487A
:100DF000406900F48060B0F5806F01D10029F5D121
:100E00000D48406900F48060B0F5806F12D1032076
:100E1000BFE709488030006840F48070064BC3F893
:100E2000800007E00448006820F4C06040F480605F
:100E3000014B18600020ACE7007000404800002023
:100E400040420F000348806840F4804001498860B8
:100E500070470000007000402DE9F8430446002769
:100E6000B846206800F40020B0F5002F73D1B946D1
:100E7000D348806D00F0805078B900BFD048806DB5
:100E800040F08050CE4988650846806D00F0805063
:100E9000009000BF00BF4FF00109CA48006840F44D
:100EA0008070C8490860FFF76BFE064606E0FFF752
:100EB00067FE801B022801D9032705E0C1480068AE
:100EC00000F480700028F2D000BF002F46D1BC484B
:100ED0009030006800F44075CDB1206CA84216D067
:100EE000B7489030006820F44075B548D0F89000BD
:100EF00040F48030B249C1F890000846D0F8900024
:100F000020F48030C1F890000846C0F8905005F0F9
:100F10000100A0B1FFF734FE064608E0FFF730FEFF
:100F2000801B41F28831884201D9032706E0A4489A
:100F30009030006800F002000028EFD000BF5FB9D9
:100F40009F489030006820F44070216C08439C4911
:100F5000C1F8900003E00CE0B84600E0B846B9F1F3
:100F6000010F05D19648806D20F080509449886526
:100F700000BF207800F0010048B191488830006837
:100F800020F00300616808438D49C1F8880020788B
:100F900000F00200022809D189488830006820F05A
:100FA0000C00A16808438649C1F88800207800F049
:100FB0000400042809D182488830006820F03000FD
:100FC000E16808437E49C1F88800207800F00800F5
:100FD000082809D17A488830006820F0C0002169CB
:100FE00008437749C1F88800207800F020002028C5
:100FF00009D173488830006820F440606169084373
:101000006F49C1F88800207800F04000402809D1DD
:101010006B488830006820F44050A1690843684953
:10102000C1F88800207800F08000802809D1644849
:101030008830006820F44040E16908436049C1F805
:101040008800208800F48070B0F5807F09D15C486A
:101050008830006820F44030216A08435849C1F8BC
:101060008800208800F40070B0F5007F09D1544852
:101070008830006820F44020616A08435049C1F874
:101080008800208800F48060B0F5806F13D14C4850
:101090008830006820F44010A16A0843484988312C
:1010A0000860A06AB0F5801F05D14548C06840F4CB
:1010B00080104349C860208800F40060B0F5006FDC
:1010C00013D13F488830006820F44000E16A0843AB
:1010D0003B4988310860E06AB0F5800F05D1384897
:1010E000C06840F480103649C860208800F4805001
:1010F000B0F5805F13D132488830006820F040702E
:10110000216B08432E4988310860206BB0F1807F45
:1011100005D12B48C06840F480102949C860208858
:1011200000F40050B0F5005F13D125488830006806
:1011300020F04060616B0843214988310860606B92
:10114000B0F1006F05D11E48C06840F480101C4902
:10115000C860208800F48040B0F5804F13D1184853
:101160008830006820F04060A16B08431449883142
:101170000860A06BB0F1006F05D11148C06840F461
:1011800080100F49C860208800F40040B0F5004F7F
:1011900013D10B488830006820F04050E16B0843C1
:1011A000074988310860E06BB0F1805F05D10448E1
:1011B000C06840F480300249C8604046BDE8F8830A
:1011C00000100240007000402DE9F04104460D4639
:1011D0004FF0000814B90120BDE8F0817D48006897
:1011E00000F00F00A8420ED27A48006820F00F00ED
:1011F0002843784908600846006800F00F00A842BC
:1012000001D00120E8E7207800F00100002864D038
:101210006068032823D17048006800F0007008B9A6
:101220000120D9E702F0C0F806466C48864237D95B
:101230006948806800F0F00030B1207800F00200CA
:1012400002282DD1A06858BB6348806820F0F000C8
:1012500040F08000604988604FF0800820E06068BE
:10126000022806D15C48006800F4003040B9012033
:10127000B2E75948006800F4806008B90120ABE784
:1012800000F0DEF806465548864209D95248806883
:1012900020F0F00040F080004F4988604FF0800857
:1012A0004D48806820F00300616808434A4988601F
:1012B000FFF766FC074608E0FFF762FCC01B41F23F
:1012C0008831884201D9032086E74348806800F0CE
:1012D0000C006168B0EB810FEED1207800F00200C5
:1012E000022820D1207800F00400042805D13A48D3
:1012F000806840F4E06038498860207800F0080099
:10130000082807D13448806820F4605040F4E06039
:10131000314988603048806820F0F000A1680843B7
:101320002D49886008E0B8F1800F05D12A4880680F
:1013300020F0F000284988602648006800F00F007F
:10134000A84219D92348006820F00F0028432149FA
:101350000860FFF715FC074608E0FFF711FCC01B0B
:1013600041F28831884201D9032035E719480068E5
:1013700000F00F00A842F0D1207800F0040004280B
:1013800007D11548806820F4E060E16808431249FD
:101390008860207800F00800082808D10E4880688E
:1013A00020F46050216940EAC1000B49886000F0D8
:1013B00047F809498968C1F30311094A515C01F0F2
:1013C0001F01C8400749086007480068FFF7FAFB9B
:1013D00002E70000002002400010024000B4C404F4
:1013E000BA5D000848000020400000200148006865
:1013F000704700004800002000B5FFF7F7FF0549DF
:101400008968C1F30221044A515C01F01F01C84000
:1014100000BD000000100240CA5D000800B5FFF7E3
:10142000E5FF05498968C1F3C221044A515C01F016
:101430001F01C84000BD000000100240CA5D000846
:1014400070B5224DAD6805F00C05042D01D1204882
:101450003AE01E4DAD6805F00C05082D01D11D4880
:1014600032E01A4DAD6805F00C050C2D2BD1174D4F
:10147000ED6805F00304154DED68C5F303156A1C0E
:10148000022C0CD0032C09D1124DB5FBF2F50F4EF6
:10149000F668C6F3062605FB06F10AE000BF0C4D10
:1014A000B5FBF2F5094EF668C6F3062605FB06F114
:1014B00000BF00BF054DED68C5F341656D1C6B00B5
:1014C000B1FBF3F000E0002070BD0000001002400E
:1014D0000024F400001BB7002DE9F843044614B9BA
:1014E0000120BDE8F883207800F00100002865D0D5
:1014F000FC48806800F00C07FA48C06800F003065A
:101500000C2F01D1032E01D0082F0AD1F548006815
:1015100000F40030002851D0606800284ED101202E
:10152000DFE700BF6068B0F5803F06D1ED48006896
:1015300040F48030EB4908601AE06068B0F5A02FF5
:101540000BD1E848006840F48020E649086008466E
:10155000006840F4803008600AE0E248006820F447
:101560008030E04908600846006820F48020086068
:1015700000BF606888B1FFF703FB054606E0FFF790
:10158000FFFA401B642801D90320AAE7D548006868
:1015900000F400300028F2D010E0FFF7F1FA054621
:1015A00006E0FFF7EDFA401B642801D9032098E715
:1015B000CC48006800F400300028F2D1207800F018
:1015C0000200022860D1C748806800F00C07C548B7
:1015D000C06800F003060C2F01D1022E01D0042FA9
:1015E00018D1C048006800F4806018B1E06808B9FC
:1015F000012076E7BB48406820F0FE40217C40EAAD
:101600000160B8494860B8480068FFF7DBFA18B3D2
:10161000012066E7E06800B3B248006840F48070DB
:10162000B0490860FFF7ACFA054606E0FFF7A8FAF4
:10163000401B022801D9032053E7AA48006800F4A0
:1016400080600028F2D0A748406820F0FE40217C4E
:1016500040EA0160A349486016E0A248006820F40F
:101660008070A0490860FFF78BFA054606E0FFF797
:1016700087FA401B022801D9032032E79948006805
:1016800000F480600028F2D1207800F008000828DB
:1016900036D16069D0B193489430006840F00100C1
:1016A0009049C1F89400FFF76BFA054606E0FFF792
:1016B00067FA401B022801D9032012E789489430B9
:1016C000006800F002000028F1D019E0854894304D
:1016D000006820F001008349C1F89400FFF750FA38
:1016E000054606E0FFF74CFA401B022801D903200B
:1016F000F7E67C489430006800F002000028F1D141
:10170000207800F00400042872D14FF000087548DA
:10171000806D012121EA107078B100BF7148806DA1
:1017200040F080506F4988650846806D00F0805019
:10173000009000BF00BF4FF001086C48006800F443
:101740008070B0B96948006840F4807067490860EB
:10175000FFF716FA054606E0FFF712FA401B0228CB
:1017600001D90320BDE66148006800F480700028BC
:10177000F2D000BFA068012808D15A489030006814
:1017800040F001005749C1F8900021E0A068052809
:101790000FD154489030006840F004005149C1F81E
:1017A00090000846D0F8900040F00100C1F8900089
:1017B0000EE04C489030006820F001004949C1F823
:1017C00090000846D0F8900020F00400C1F8900086
:1017D00000BFA068A8B1FFF7D3F9054609E0FFF7FD
:1017E000CFF9401B41F28831884202D9032078E6C4
:1017F00025E03C489030006800F002000028EED060
:1018000013E0FFF7BDF9054608E0FFF7B9F9401B03
:1018100041F28831884201D9032062E63148903094
:10182000006800F002000028EFD1B8F1010F05D1E7
:101830002C48806D20F080502A49886500BF2078B0
:1018400000F02000202836D1A069D0B1254898307A
:10185000006840F001002349C1F89800FFF790F9B3
:10186000054606E0FFF78CF9401B022801D903204A
:1018700037E61C489830006800F002000028F1D0DC
:1018800019E018489830006820F001001549C1F8A7
:101890009800FFF775F9054606E0FFF771F9401B60
:1018A000022801D903201CE60E489830006800F099
:1018B00002000028F1D1E069002860D00948806862
:1018C00000F00C000C287FD0E069022858D10548B0
:1018D000006820F0807003490860FFF751F9054661
:1018E0000DE00000001002404000002000700040A9
:1018F000FFF746F9401B022801D90320F1E54D48C6
:10190000006800F000700028F2D1D4E90810401EF1
:1019100041EA0011A06A41EA0021208E0122C2EBB7
:10192000500041EA40513420005DC2EB500041EAD2
:1019300040612C20005D41EAC0603E49C9683E4AD2
:10194000114008433B49C8600846006840F0807079
:1019500008600846C06840F08070C860FFF710F962
:10196000054606E0FFF70CF9401B022801D90320C9
:10197000B7E53048006800F000700028F2D056E06B
:101980002C48006820F080702A4908600846C0682A
:1019900020F00300C8600846C0682849084025496F
:1019A000C860FFF7EDF8054607E00DE0FFF7E8F83F
:1019B000401B022801D9032093E51E48006800F06F
:1019C00000700028F2D132E0E069012800D188E5FA
:1019D0001848C66806F00301206A814225D106F046
:1019E000F001606A401EB1EB001F1ED106F4FE41FB
:1019F000A06AB1EB002F18D106F078412C20005DD1
:101A0000B1EBC06F11D106F4C001208E0122C2EBF0
:101A10005000B1EB405F08D106F0C0613420005D9A
:101A2000C2EB5000B1EB406F01D0012059E500201E
:101A300057E50000001002400C809F01FFFFEEFE02
:101A4000014691F85D00704770B504460CB901205D
:101A500070BD606A38B96068B0F5827F00D105E07A
:101A60000021E16102E00021216161610021A162A8
:101A700094F85D0028B9002084F85C00204600F04E
:101A800061F8022084F85D002068006820F04000C2
:101A900021680860E068B0F5E06F01D9002501E039
:101AA0004FF48055E068B0F5706F05D0E068B0F590
:101AB000E06F01D00021A162A08800F4827021892A
:101AC00001F404410843217C01F002010843217D17
:101AD00001F001010843218B01F400710843217FCB
:101AE00001F0380108432021095D01F0800108431D
:101AF000218D01F400510843216808600421A06988
:101B000001EA104094F8241001F01001084394F801
:101B1000341001F008010843A18901F47061084301
:101B200005F480510843216848602068C06920F4AA
:101B300000602168C86100202066012084F85D00F3
:101B4000002085E710B586B00446142101A8FEF7F1
:101B500097FB17492068884228D100BF1548006EBE
:101B600040F48050134908660846006E00F4805027
:101B7000009000BF00BF00BF0846C06C40F00100ED
:101B8000C8640846C06C00F00100009000BF00BFB0
:101B9000E020019002200290002003900490052094
:101BA000059001A94FF09040FEF7FEFE06B010BD73
:101BB00000300140001002402DE9F84304468846F9
:101BC00016461D464FF000096068B0F5827F0DD1C2
:101BD000A06858B9042084F85D0033464246414667
:101BE0002046009500F0B0F9BDE8F88300BF94F8F6
:101BF0005C00012801D10220F6E7012084F85C0096
:101C000000BFFEF7BDFF074694F85D00012802D033
:101C10004FF0020999E0B8F1000F00D016B94FF06B
:101C2000010992E0042084F85D0000202066C4F8D9
:101C30004080A4F84460A4F84660A063A087E087D1
:101C4000E0642065E068B0F5E06F06D92068406880
:101C500020F480502168486005E02068406840F426
:101C6000805021684860A068B0F5004F0BD1206813
:101C7000006820F04000216808602068006820F4B7
:101C80008040216808602068006800F0400040281B
:101C900005D02068006840F0400021680860E068D6
:101CA000B0F5E06F22D81CE02068806800F00100E9
:101CB00060B12068007B216C0870206C401C20649F
:101CC000B4F84600401EA4F846000AE0FEF758FFAC
:101CD000C01BA84201D3681C00B915B94FF0030915
:101CE00033E0B4F846000028DED121E01CE0206893
:101CF000806800F0010060B12068C068216C088035
:101D0000206C801C2064B4F84600401EA4F84600F5
:101D10000AE0FEF735FFC01BA84201D3681C00B9DA
:101D200015B94FF0030910E0B4F846000028DED1E1
:101D30003A462946204601F023FD08B120202066BE
:101D4000206E08B14FF0010900BF012084F85D004A
:101D500000BF002084F85C0000BF484644E72DE93E
:101D6000F84F0446884616461D464FF0000A00BF4D
:101D700094F85C00012802D10220BDE8F88F012010
:101D800084F85C0000BFFEF7FBFE0746B14694F8FE
:101D90005D00012802D04FF0020ACBE0B8F1000F3D
:101DA00000D016B94FF0010AC4E0032084F85D00AA
:101DB00000202066C4F83880A687E6872064A4F84F
:101DC0004400A4F846002065E064A068B0F5004F28
:101DD0000BD12068006820F040002168086020686E
:101DE000006840F48040216808602068006800F0C6
:101DF0004000402805D02068006840F0400021687D
:101E00000860E068B0F5E06F2FD9606810B1B9F1F3
:101E1000010F09D1A06B00882168C860A06B801CED
:101E2000A063E08F401EE0871BE02068806800F020
:101E3000020002280AD1A06B00882168C860A06B4C
:101E4000801CA063E08F401EE0870AE0FEF798FE4A
:101E5000C01BA84201D3681C00B915B94FF0030A92
:101E600068E0E08F0028E0D14AE0606810B1B9F185
:101E7000010F17D1E08F01280AD9A06B00882168D3
:101E8000C860A06B801CA063E08F801EE08709E023
:101E9000A06B007821680873A06B401CA063E08FE2
:101EA000401EE08729E02068806800F002000228D8
:101EB00018D1E08F01280AD9A06B00882168C8607A
:101EC000A06B801CA063E08F801EE08715E0A06BF4
:101ED000007821680873A06B401CA063E08F401E4F
:101EE000E0870AE0FEF74CFEC01BA84201D3681C45
:101EF00000B915B94FF0030A1CE0E08F0028D2D1D9
:101F00003A462946204601F07CFC08B12020206694
:101F1000A06850B900BF002000902068C068009001
:101F200020688068009000BF00BF206E08B14FF0AD
:101F3000010A00BF012084F85D0000BF002084F882
:101F40005C0000BF504618E72DE9FF5F0446894654
:101F500092461D460E9E012001900020009000BF79
:101F600094F85C00012803D1022004B0BDE8F09F82
:101F7000012084F85C0000BFFEF702FE074694F8DB
:101F80005D00029060680390A846AB460298012865
:101F90000BD00398B0F5827F04D1A06810B90298E5
:101FA000042802D00220009022E1B9F1000F03D0F2
:101FB000BAF1000F00D015B90120009018E194F893
:101FC0005D00042802D0052084F85D000020206612
:101FD000C4F840A0A4F84650A4F84450C4F838907F
:101FE000E587A587E0642065E068B0F5E06F02D87A
:101FF000BBF1010F06D92068406820F480502168A9
:10200000486005E02068406840F4805021684860DE
:102010002068006800F04000402805D02068006873
:1020200040F0400021680860E068B0F5E06F4ED9EC
:10203000606810B1B8F1010F09D1A06B0088216868
:10204000C860A06B801CA063E08F401EE08736E074
:102050002068806800F00200022810D1E08F70B183
:10206000019801280BD1A06B00882168C860A06B83
:10207000801CA063E08F401EE08700200190206854
:10208000806800F0010080B1B4F8460068B12068B3
:10209000C068216C0880206C801C2064B4F8460065
:1020A000401EA4F8460001200190FEF769FDC01B08
:1020B000B04204D3701C10B10320009098E0E08F70
:1020C0000028C5D1B4F846000028C1D185E0606879
:1020D00010B1B8F1010F17D1E08F01280AD9A06B18
:1020E00000882168C860A06B801CA063E08F801E00
:1020F000E08709E0A06B007821680873A06B401CA2
:10210000A063E08F401EE08760E02068806800F0F8
:10211000020002281ED1E08FE0B10198012819D1F8
:10212000E08F01280AD9A06B00882168C860A06BE5
:10213000801CA063E08F801EE08709E0A06B007820
:1021400021680873A06B401CA063E08F401EE087ED
:10215000002001902068806800F0010058B3B4F8B6
:10216000460040B3B4F84600012816D92068C0687C
:10217000216C0880206C801C2064B4F84600801E0E
:10218000A4F84600B4F84600012812D82068406838
:1021900040F48050216848600BE02068007B216C8F
:1021A0000870206C401C2064B4F84600401EA4F85F
:1021B000460001200190FEF7E3FCC01BB04201D3B2
:1021C000701C00B916B90320009011E0E08F0028C0
:1021D0009BD1B4F84600002897D13A4631462046B4
:1021E00001F00FFB18B1012000902020206600BFF5
:1021F000012084F85D0000BF002084F85C0000BF6F
:102200000098B2E670B504462546681EB0F1807F9E
:1022100001D301200FE0681E4FF0E02148610F213B
:102220004FF0FF3002F096FB00204FF0E021886174
:1022300007200861002070BD7047704770477047E5
:102240007047704730B502460B4600BF92F83C001D
:10225000012801D1022030BD012082F83C0000BFDE
:10226000022082F83D0010684168106884681D4DA6
:102270001068A84203D01C4D1068A84203D121F475
:1022800070015868014319480140186801431068FB
:102290004160144D1068A84213D01068B0F1804F0F
:1022A0000FD0134D1068A8420BD0124D1068A842F1
:1022B00007D00D4D1068A84203D00F4D1068A842FA
:1022C00005D124F0800498680443106884600120DC
:1022D00082F83D0000BF002082F83C0000BF00BF34
:1022E000B9E70000002C0140003401408FFFFFFDE2
:1022F000000400400008004000400140704710B555
:1023000004460CB9012010BD94F83D0028B9002006
:1023100084F83C00204600F029F8022084F83D00B3
:10232000211D206801F0D6FB012084F8480000BF81
:1023300084F83E0001213F200155402001554120F5
:102340000155422001554320015500BF00BF012027
:1023500084F8440045200155462001554720015589
:1023600000BF012084F83D000020CCE738B50446CA
:102370000D492068884215D100BF0C48806D40F09F
:1023800010000A4988650846806D00F01000009032
:1023900000BF00BF002211463620FEF775FC362034
:1023A000FEF75EFC38BD0000001000400010024047
:1023B000014691F83D00012801D00120704702201C
:1023C00081F83D000868C06840F001000B68D860E3
:1023D000184B0868984213D00868B0F1804F0FD0AE
:1023E000154B086898420BD0144B0868984207D0E8
:1023F000134B0868984203D0124B0868984210D1DA
:1024000008688068104B00EA0302062A0FD0B2F574
:10241000803F0CD00868006840F001000B6818602D
:1024200005E00868006840F001000B6818600020B3
:10243000C4E70000002C01400004004000080040F8
:102440000034014000400140070001002DE9F04147
:1024500004460D46002700BF94F83C00012802D135
:102460000220BDE8F081012084F83C0000BF02207A
:1024700084F83D00206886683F48064026F47F4681
:10248000206886602868702824D00CDC00F00F01DA
:10249000002964D10011072861D2DFE800F053540D
:1024A000555649353F00354A811A90424FD009DCD4
:1024B000B0F5805F0DD0B0F5005F18D0B0F1101FFF
:1024C0004DD143E0102943D0202942D0502946D194
:1024D00040E046E0D5E902136A68206801F069FB34
:1024E0002068866846F077062068866039E0D5E97E
:1024F00002136A68206801F05CFB2068806840F481
:102500008040216888602CE0EA686968206801F0F2
:102510003BFD5021206801F057FB22E0EA68696822
:10252000206801F044FD6021206801F04DFB18E0B7
:10253000EA686968206801F027FD4021206801F001
:1025400043FB0EE000BF00BF00BF00BF00BF00BFE5
:1025500000BF00BF2968206801F036FB01E00127B9
:1025600000BF00BF012084F83D0000BF002084F8B8
:102570003C0000BF384674E788FFCEFF2000100003
:10258000704710B5044620680069C0F34000D8B118
:102590002068C068C0F34000B0B16FF0020021684D
:1025A0000861012020772068806900F0030018B1DD
:1025B0002046FFF7E5FF05E0204600F02FF9204612
:1025C00000F01DFA0020207720680069C0F3800029
:1025D000D8B12068C068C0F38000B0B16FF00400CB
:1025E00021680861022020772068806900F440702B
:1025F00018B12046FFF7C4FF05E0204600F00EF9B1
:10260000204600F0FCF90020207720680069C0F324
:10261000C000D8B12068C068C0F3C000B0B16FF08E
:10262000080021680861042020772068C06900F054
:10263000030018B12046FFF7A3FF05E0204600F095
:10264000EDF8204600F0DBF90020207720680069D3
:10265000C0F30010D8B12068C068C0F30010B0B15A
:102660006FF0100021680861082020772068C06999
:1026700000F4407018B12046FFF782FF05E02046C5
:1026800000F0CCF8204600F0BAF90020207720684E
:10269000006900F0010058B12068C06800F0010036
:1026A00030B16FF0010021680861204600F04EFA59
:1026B00020680069C0F3C01058B12068C068C0F33A
:1026C000C01030B16FF08000216808612046FFF72C
:1026D000B4FD20680069C0F3002058B12068C068CC
:1026E000C0F3C01030B16FF48070216808612046DB
:1026F000FFF7A2FD20680069C0F3801058B1206880
:10270000C068C0F3801030B16FF0400021680861EC
:10271000204600F027FA20680069C0F3401058B145
:102720002068C068C0F3401030B16FF0200021680D
:1027300008612046FFF782FD20680069C0F3005061
:1027400058B12068C068C0F3005030B16FF48010F9
:10275000216808612046FFF773FD20680069C0F317
:10276000405058B12068C068C0F3405030B16FF499
:102770000010216808612046FFF761FD20680069AC
:10278000C0F3805058B12068C068C0F3805030B1A9
:102790006FF48000216808612046FFF752FD206831
:1027A0000069C0F3C05058B12068C068C0F3C05081
:1027B00030B16FF40000216808612046FFF79EFDEC
:1027C00010BD000010B586B00446142101A8FDF725
:1027D00057FD2068B0F1804F1AD100BF0D48C06C82
:1027E00040F002000B49C8640846C06C00F00200CB
:1027F000009000BF00BFC81401900220029000208A
:10280000039004900120059001A90348FEF7CCF83D
:1028100006B010BD001002400004004870472DE9CA
:10282000F04104460D461646002700BF94F83C00D0
:10283000012802D10220BDE8F081012084F83C008B
:1028400000BF0C2E51D005DC4EB1042E1ED0082E38
:102850007AD133E0102E60D0142EF9D175E02946DC
:10286000206801F0BDF92068806940F00800216807
:1028700088612068806920F00400216888612068F0
:102880008069296908432168886178E029462068C1
:1028900001F0FCF92068806940F4006021688861DB
:1028A0002068806920F480602168886120688069E0
:1028B000296940EA01202168886160E02946206892
:1028C00001F03EFA2068C06940F008002168C86144
:1028D0002068C06920F004002168C8612068C069D0
:1028E000296908432168C86149E02946206801F048
:1028F00081FA2068C06940F400602168C8612068DE
:10290000C06920F480602168C8612068C0692969B5
:1029100040EA01202168C86131E02946206801F0C1
:10292000C3FA2068006D40F008002168086520683F
:10293000006D20F00400216808652068006D296999
:102940000843216808651AE017E02946206801F06D
:10295000E3FA2068006D40F4006021680865206893
:10296000006D20F48060216808652068006D296989
:1029700040EA01202168086501E0012700BF00BF8F
:1029800000BF002084F83C0000BF384653E710B574
:1029900004460CB9012010BD94F83D0028B9002070
:1029A00084F83C00204600F029F8022084F83D001D
:1029B000211D206801F08EF8012084F8480000BF36
:1029C00084F83E0001213F2001554020015541205F
:1029D0000155422001554320015500BF00BF012091
:1029E00084F84400452001554620015547200155F3
:1029F00000BF012084F83D000020CCE770477047FD
:102A000070B504460D4615B994F83E0015E0042D46
:102A100002D13F20005D10E0082D02D14020005D72
:102A20000BE00C2D02D14120005D06E0102D02D1FB
:102A30004220005D01E04320005D012801D001201B
:102A400070BD1DB9022084F83E001AE0042D03D1A8
:102A500002213F20015514E0082D03D1022140201E
:102A600001550EE00C2D03D102214120015508E053
:102A7000102D03D102214220015502E00221432002
:102A8000015501222946206801F082F82749206873
:102A900088420FD02649206888420BD025492068FB
:102AA000884207D024492068884203D023492068FF
:102AB000884201D1012000E0002028B12068406C4C
:102AC00040F400402168486418492068884213D0C7
:102AD0002068B0F1804F0FD01949206888420BD090
:102AE00018492068884207D011492068884203D0DD
:102AF00010492068884210D120688068124900EA95
:102B00000106062E0FD0B6F5803F0CD02068006875
:102B100040F001002168086005E02068006840F08E
:102B200001002168086000208AE70000002C0140B5
:102B30000034014000400140004401400048014091
:102B40000004004000080040070001000449097823
:102B500021B103490978491E014A117070470000EC
:102B6000000000207047014600BF91F88000012856
:102B700001D102207047012081F8800000BF24208D
:102B8000C1F88400086802680868006820F0010045
:102B90000B68186022F00052002048660868026046
:102BA0002020C1F8840000BF002081F8800000BF11
:102BB00000BFDFE770B504460D4600BF94F8800003
:102BC000012801D1022070BD012084F8800000BFDF
:102BD0002420C4F88400206806682068006820F07B
:102BE0000100216808602068806820F06060284348
:102BF00021688860204601F0EFF9206806602020F7
:102C0000C4F8840000BF002084F8800000BF00BF2B
:102C1000D9E770B504460D4600BF94F8800001283E
:102C200001D1022070BD012084F8800000BF242063
:102C3000C4F88400206806682068006820F001005D
:102C4000216808602068806820F06040284321687F
:102C50008860204601F0C0F9206806602020C4F892
:102C6000840000BF002084F8800000BF00BFD9E7C7
:102C700010B504460CB9012010BDA06900B100E0F8
:102C800000BFD4F8840028B9002084F880002046D2
:102C900000F02AF82420C4F884002068006820F09E
:102CA000010021680860204601F07AFA012800D16D
:102CB000E2E7A06A10B1204601F0BAF92068406846
:102CC00020F49040216848602068806820F02A0045
:102CD000216888602068006840F001002168086071
:102CE000204601F021FAC7E710B598B00446142138
:102CF00013A8FDF7C5FA442102A8FDF7C1FA264939
:102D00002068884246D1012002900020039002A84A
:102D1000FEF7A2F808B1FDF730FE00BF1F48006EB5
:102D200040F480401D4908660846006E00F480406B
:102D3000019000BF00BF00BF0846C06C40F001001A
:102D4000C8640846C06C00F00100019000BF00BFDD
:102D5000481513900220149000201590169007201B
:102D6000179013A94FF09040FDF71EFE4FF48060BE
:102D7000139001201490002015900220169013A9A2
:102D80004FF09040FDF710FE012291024FF090406D
:102D9000FDF7F0FE18B010BD0038014000100240F1
:102DA00000BFFEE700B587B0142102A8FDF768FA5E
:102DB00000BF2848C06C40F020002649C86408467F
:102DC000C06C00F02000019000BF00BF00BF0846AB
:102DD000C06C40F00100C8640846C06C00F00100FF
:102DE000019000BF00BF00BF0846C06C40F0020069
:102DF000C8640846C06C00F00200019000BF00BF2C
:102E0000002205211448FDF7B5FE01200290039031
:102E1000002004900220059002A90F48FDF7C4FD90
:102E200040F2024002904FF488100390002004907A
:102E300002A90948FDF7B8FD042002900120039083
:102E400004900220059002A90348FDF7ADFD07B0EC
:102E500000BD0000001002400004004810B51148F9
:102E6000114908604FF48270486000210E4881606B
:102E70004FF4E061C1600221016101214161490219
:102E800081611821C16100210162416281620721D3
:102E9000C162002101634163FEF7D6FD08B1FDF771
:102EA0006CFD10BD003001405400002000B58FB013
:102EB00000200B900C900D900E90089009900A90B5
:102EC0001C2101A8FDF7DCF94FF080402149086082
:102ED000A720486000211F48816040F2E731C160AF
:102EE00000210161FFF70BFA08B1FDF746FD4FF431
:102EF00080500B900BA91748FFF7A8FA08B1FDF70F
:102F00003CFD1448FFF743FD08B1FDF736FD0020F6
:102F100008900A9008A90F48FFF794F908B1FDF747
:102F20002CFD602001904FF47A70029000200390F5
:102F300005900C2201A90748FFF771FC08B1FDF7C5
:102F40001CFD0C210348FFF75BFD0248FFF73AFC2C
:102F50000FB000BDB80000200EB500200090019019
:102F600002900F480F490860A720486000210D48D3
:102F7000816040F2E731C160FFF7C1F908B1FDF7A8
:102F8000FCFC00200090029069460648FFF75AF9C1
:102F900008B1FDF7F2FC0348FFF70AFA0EBD000086
:102FA000001000400401002010B5184818490860BE
:102FB0004FF4E1304860002115488160C160016133
:102FC0000821416100218161C161016241620020EB
:102FD0000F4988620846FFF74BFE08B1FDF7CDFCAC
:102FE00000210B48FFF715FE08B1FDF7C6FC0021D4
:102FF0000748FFF7DFFD08B1FDF7BFFC0448FFF706
:10300000B2FD08B1FDF7B9FC10BD00000038014069
:103010005001002010B52DED108BB0EE408AF0EE7F
:10302000608AB0EE419AB0EE61BAB0EE42AAF0EE1C
:1030300062AACB4890ED000A38EE400AB0EE408A12
:10304000C84890ED000A38EEC00AF0EE408AC64843
:1030500090ED000A39EE400AB0EE409AB5EEC0BAE3
:10306000F1EE10FA09D1B5EEC0AAF1EE10FA04D1D2
:10307000F5EEC0AAF1EE10FA7ED06BEE0B0A4AEE26
:103080000A0A4AEEAA0AB0EE600A02F0CFFCF0EE9D
:10309000409AB0EE690A2BEE000AB0EE40BAB0EEEC
:1030A000690A2AEE000AB0EE40AAB0EE690A2AEEDA
:1030B000800AF0EE40AAAD4890ED000AAC48D0ED91
:1030C000000A20EE200AAB48D0ED000AAA4890ED95
:1030D000001AB0EE40DA00EEC1DAA64890ED000A20
:1030E000A248D0ED000A20EE200AA348D0ED000A45
:1030F0009F4890ED001AF0EE40DA40EE81DA9D48EC
:10310000D0ED000A90ED001AB6EE000A10EE810A2A
:103110009748D0ED000A90ED001AB0EE40EA00EEBC
:1031200081EA2AEE0E0AF0EE40EA4AEEEDEA2AEED5
:103130008D0AB0EE40FA0BEE4EFA2BEE2D0AF0EEB1
:1031400040FA4AEE4DFA8D4890ED000AB5EEC00AFD
:10315000F1EE10FA40DD90ED000A60EE2E0A88488C
:1031600090ED000A9FED871A00EE810A80ED000ABB
:10317000824890ED000A00E056E060EE0F0A8248B7
:1031800090ED000A9FED7F1A00EE810A80ED000AA3
:103190007A4890ED000A60EE2F0A7C4890ED000A14
:1031A0009FED781A00EE810A80ED000A744890EDD8
:1031B000000A38EE000AB0EE408A734890ED000A2B
:1031C00038EE800AF0EE408A704890ED000A39EE41
:1031D000000AB0EE409A0EE09FED6D0A684880ED5F
:1031E000000A9FED6B0A684880ED000A9FED680AAF
:1031F000664880ED000A6748D0ED000AB0EE480A44
:1032000000EEAE0AB0EE408AD0ED000AB0EE680AD9
:1032100000EE8F0AF0EE408AD0ED000AB0EE490AC7
:1032200000EEAF0AB0EE409A9FED5B0A28EE000A6E
:10323000B0EE408A9FED580A28EE800AF0EE408AF0
:103240009FED550A29EE000AB0EE409A4948D0EDAC
:1032500000BA464890ED00CA4748D0ED00CAB1EE2A
:103260004C0A20EE080A0CEEE80A4148D0ED000AAC
:1032700000EEC90A3F48D0ED000A30EE200A80ED8A
:10328000000A2BEE880A0CEE890A3948D0ED000AB4
:1032900000EEE80A3548D0ED000A30EE200A80ED55
:1032A000000A2BEEA80A0CEE490A3148D0ED000ABC
:1032B00000EE880A3048D0ED000A30EE200A80ED9A
:1032C000000A2BEE890A0CEE280A0CEEC80A2848E0
:1032D000D0ED000A30EE200A80ED000A2548D0ED3E
:1032E000000A90ED001A60EE810A204890ED001A65
:1032F000D0ED001A41EE210A1F4890ED001AD0EDE2
:10330000001A41EE210A1A4890ED001AD0ED001A79
:1033100041EE210AB0EE600A02F088FBF0EE409A1E
:10332000144890ED000A20EE290A80ED000A0F48AB
:1033300090ED000A20EE290A80ED000A0E4890ED7B
:10334000000A20EE290A80ED000A094890ED000AE3
:1033500020EE290A80ED000ABDEC108B10BD0000A4
:10336000280000202C000020300000201000002049
:10337000180000200C00002014000020080000208D
:103380001C000020AC54673B2000002024000020DB
:103390000000000004000020AC54E73A00BFFEE744
:1033A00000BFFEE77047000070B5164DED6805F0F0
:1033B0000304144DED68C5F303156B1C022C0CD0EF
:1033C000032C09D1104DB5FBF3F50E4EF668C6F38C
:1033D000062605FB06F10AE000BF0C4DB5FBF3F530
:1033E000084EF668C6F3062605FB06F100BF00BFCF
:1033F000044DED68C5F341656D1C6A00B1FBF2F048
:1034000070BD000000100240001BB7000024F40053
:103410001FB5044602AA0621122000F0C3F89DF849
:1034200008009DF8091000EB012000B2ADF8000083
:103430009DF80A009DF80B1000EB012000B2ADF8DA
:1034400002009DF80C009DF80D1000EB012000B269
:10345000ADF80400BDF9000000EE100AB8EEC00A95
:10346000DFED0F0A20EE200A84ED000ABDF902000C
:1034700000EE100AB8EEC00ADFED090A20EE200ABD
:1034800084ED010ABDF9040000EE100AB8EEC00A8E
:10349000DFED030A20EE200A84ED020A1FBD0000C2
:1034A000E7416B3AF8B506466A460221222000F051
:1034B00079F89DF80000C0009DF8011000EB611440
:1034C000B4F5806F03DBA4F5006005B200E025B21F
:1034D00000EE105AF8EEC00AB4EE001AB3EE070A76
:1034E00000EE810A86ED000AF8BD000010B52DED52
:1034F000028B84B004469FED290AB0EE408A02AAEE
:103500000621022000F096F89DF808009DF80910A9
:1035100000EB012000B2ADF800009DF80A009DF814
:103520000B1000EB012000B2ADF802009DF80C007A
:103530009DF80D1000EB012000B2ADF80400BDF9BC
:10354000000000EE100AB8EEC00AC0EE080A9FEDB7
:10355000140A20EE800A84ED000ABDF9020000EE94
:10356000100AB8EEC00AC0EE080A9FED0D0A20EE60
:10357000800A84ED010ABDF9040000EE100AB8EEDD
:10358000C00AC0EE080A9FED060A20EE800A84ED0C
:10359000020A04B0BDEC028B10BD00006F12834123
:1035A00035FA8E3C2DE9FC4105460E4617460022B1
:1035B00004211E48FDF7DEFA45F0800001904FF42B
:1035C0007A73012201A91A48FEF7C9FB00BF184807
:1035D000FEF736FA0328FAD04FF47A7301226946CF
:1035E0001348FEF7E9FA00BF1148FEF729FA04284C
:1035F000FAD0002410E04FF47A73012269460C4897
:10360000FEF7DAFA00BF0A48FEF71AFA0428FAD0E1
:103610009DF800003855641CB442ECDB0122042103
:103620000248FDF7A7FABDE8FC810000000400484D
:10363000540000202DE9FC4105460E4617460022A5
:1036400001211748FDF796FA45F0800001904FF4EC
:103650007A73012201A91348FEF781FB00BF1148CC
:10366000FEF7EEF90328FAD0002410E04FF47A7345
:10367000012269460B48FEF79FFA00BF0948FEF792
:10368000DFF90428FAD09DF800003855641CB442D4
:10369000ECDB012211460248FDF76CFABDE8FC8123
:1036A000000400485400002038B504460D460022AE
:1036B00004211948FDF75EFA44F0800000904FF4B1
:1036C0007A73012269461548FEF749FB00BF13488B
:1036D000FEF7B6F90328FAD04FF47A73012229468F
:1036E0000E48FEF769FA00BF0C48FEF7A9F9042856
:1036F000FAD04FF47A73012229460848FEF75CFAA3
:1037000000BF0648FEF79CF90428FAD001220421E4
:103710000148FDF72FFA38BD00040048540000208E
:1037200038B504460D46002201211348FDF722FA60
:1037300044F0800000904FF47A73012269460F48EC
:10374000FEF70DFB00BF0D48FEF77AF90328FAD00B
:103750004FF47A73012229460848FEF72DFA00BF7C
:103760000648FEF76DF90428FAD0012211460248F6
:10377000FDF700FA38BD00000004004854000020A6
:10378000F8B504460E4615466068B0F5827F0DD147
:10379000A068B0F5004F03D0A068B0F5806F05D1E8
:1037A0002068006820F0400021680860334600224D
:1037B00080212046009500F0D3F828B1206E40F01B
:1037C000200020660320F8BD6068B0F5827F16D126
:1037D000A068B0F5004F03D0A068B0F5806F0ED19F
:1037E000334600224FF4C0612046009500F03CF8BB
:1037F00028B1206E40F0200020660320E3E700207F
:10380000E1E7F8B504460E461546334600224FF46C
:10381000C0512046009500F027F828B1206E40F0F6
:10382000200020660320F8BD334600228021204678
:10383000009500F095F828B1206E40F02000206639
:103840000320F0E7334600224FF4C0612046009584
:1038500000F00AF828B1206E40F020002066032016
:10386000E1E70020DFE700002DE9FC5F04460D469C
:1038700016461F46DDF8309000200090FDF780F9D5
:10388000A0EB0900A7EB0008FDF77AF98246206853
:1038900000F10C0B31480068C0EBC00000EB800069
:1038A000000D00FB08F0019050E0B5F5C06F05D1A8
:1038B00026B99BF8000000909DF80000781C0028B5
:1038C00044D0FDF75DF9A0EB0A00404502D2B8F103
:1038D000000F34D12068406820F0E0002168486083
:1038E0006068B0F5827F0DD1A068B0F5004F03D0BD
:1038F000A068B0F5806F05D12068006820F0400016
:1039000021680860A06AB0F5005F0DD100BF206893
:10391000006820F40050216808602068006840F4C6
:1039200000502168086000BF012084F85D0000BFDE
:10393000002084F85C0000BF0320BDE8FC9F0198D4
:1039400008B94FF000080198401E01902068806877
:103950002840B042A9D10020EFE700004800002035
:103960002DE9F84F04460D4690461E46DDF8289096
:10397000FDF706F9A0EB0900371AFDF701F98246B9
:103980002C480068C0F3CB307843009045E0701CB1
:10399000002842D0FDF7F4F8A0EB0A00B84200D2AC
:1039A000A7BB2068406820F0E0002168486060689C
:1039B000B0F5827F0DD1A068B0F5004F03D0A068AC
:1039C000B0F5806F05D12068006820F040002168C4
:1039D0000860A06AB0F5005F0DD100BF20680068E4
:1039E00020F40050216808602068006840F400500E
:1039F0002168086000BF012084F85D0000BF00203E
:103A000084F85C0000BF0320BDE8F88FFFE7009852
:103A100000B900270098401E009020688068284068
:103A2000A84201D1012000E000204045AFD1002094
:103A3000EAE7000048000020704710B5FDF7A6F83F
:103A400010BD00B593B0382105A8FCF719FC14216E
:103A50006846FCF715FC0020FDF768F90120059089
:103A60000004069002200C9003210D9101210E917B
:103A70001C210F91022110911191129105A8FDF7BF
:103A80002BFD08B1FCF779FF0F2000900320019077
:103A9000002002904FF48060039004900421684657
:103AA000FDF792FB08B1FCF768FF13B000BD000002
:103AB0000348006840F47000014908607047000046
:103AC00088ED00E010B50248FEF75BFD10BD000078
:103AD0000401002010B50268264B98420BD0B0F1CB
:103AE000804F08D0244B984205D0244B984202D0F6
:103AF000234B984203D122F070024B681A431D4BAE
:103B0000984214D0B0F1804F11D01B4B98420ED088
:103B10001A4B98420BD01A4B984208D0194B984236
:103B200005D0194B984202D0184B984203D122F489
:103B30004072CB681A4322F080034C6943EA0402C6
:103B400002608B68C3620B6883620A4B98420BD099
:103B50000B4B984208D00B4B984205D00A4B984229
:103B600002D00A4B984201D10B69036301234361E0
:103B700010BD0000002C014000040040000800407F
:103B80000034014000400140004401400048014031
:103B900030B501F01F05012404FA05F3046A9C43C3
:103BA0000462046A01F01F0502FA05F52C43046261
:103BB00030BD30B50C46816821F47F4142EA0325CF
:103BC00025432943816030BD0A468168034B194073
:103BD00042F0070319438160704700008FFFCFFF59
:103BE00030B5056A25F001050562026A43688469FB
:103BF000204D2C4024F003040D682C4322F00202D7
:103C00008D682A431C4DA84200D10FE01B4DA842ED
:103C100000D10BE01A4DA84200D107E0194DA8428F
:103C200000D103E0184DA84206D100BF22F00802DF
:103C3000CD682A4322F004020F4DA8420BD00F4D4D
:103C4000A84208D00E4DA84205D00E4DA84202D081
:103C50000D4DA84207D123F4807323F400734D69FE
:103C60002B438D692B43436084614D684563026239
:103C700030BD00008FFFFEFF002C014000340140EA
:103C800000400140004401400048014030B5056A51
:103C900025F010050562026A43688469224D2C40B4
:103CA00024F440740D6844EA052422F020028D6853
:103CB00042EA05121D4DA84200D10FE01C4DA8425A
:103CC00000D10BE01B4DA84200D100BF1A4DA84205
:103CD00000D100BF194DA84207D106E022F08002B2
:103CE000CD6842EA051222F04002104DA8420BD0E6
:103CF0000F4DA84208D00F4DA84205D00E4DA84246
:103D000002D00E4DA84209D123F4806323F400634E
:103D10004D6943EA85038D6943EA85034360846105
:103D20004D688563026230BDFF8FFFFE002C0140AD
:103D3000003401400040014000440140004801407F
:103D400030B5056A25F480750562026A4368C46966
:103D5000224D2C4024F003040D682C4322F4007201
:103D60008D6842EA05221E4DA84200D10FE01D4D8C
:103D7000A84200D10BE01C4DA84200D100BF1B4D52
:103D8000A84200D100BF1A4DA84207D106E022F494
:103D90000062CD6842EA052222F48062104DA842FA
:103DA0000BD0104DA84208D00F4DA84205D00F4DA2
:103DB000A84202D00E4DA84209D123F4805323F427
:103DC00000534D6943EA05138D6943EA05134360C7
:103DD000C4614D68C563026230BD00008FFFFEFF05
:103DE000002C0140003401400040014000440140EB
:103DF0000048014030B5056A25F480550562026A25
:103E00004368C469224D2C4024F440740D6844EA90
:103E1000052422F400528D6842EA05321D4DA84265
:103E200000D10FE01C4DA84200D10BE01B4DA84271
:103E300000D100BF1A4DA84200D100BF194DA842C1
:103E400007D106E022F40042CD6842EA053222F4AE
:103E50008042104DA8420BD00F4DA84208D00F4D04
:103E6000A84205D00E4DA84202D00E4DA84209D15D
:103E700023F4804323F400434D6943EA85138D699D
:103E800043EA85134360C4614D680564026230BD36
:103E9000FF8FFFFE002C0140003401400040014034
:103EA000004401400048014030B5056A25F48035E2
:103EB0000562026A4368046D114D2C400D682C4365
:103EC00022F400320D8942EA05420E4DA8420BD081
:103ED0000D4DA84208D00D4DA84205D00C4DA8426A
:103EE00002D00C4DA84204D123F480334D6943EA3B
:103EF0000523436004654D688564026230BD00009F
:103F00008FFFFEFF002C01400034014000400140C3
:103F1000004401400048014030B5056A25F4801591
:103F20000562026A4368046D114D2C400D6844EA35
:103F3000052422F400120D8942EA05520D4DA842D3
:103F40000BD00D4DA84208D00C4DA84205D00C4D09
:103F5000A84202D00B4DA84204D123F480234D691E
:103F600043EA8523436004654D68C564026230BD41
:103F7000FF8FFFFE002C0140003401400040014053
:103F8000004401400048014030B50B461446026A27
:103F9000056A25F001050562816921F0F00141EA19
:103FA000041122F00A021A438161026230BD30B569
:103FB0000B461446056A25F0100505628169026A00
:103FC00021F4704141EA043122F0A00242EA0312D6
:103FD0008161026230BD000070B5456E2DB90125CA
:103FE000A0F86A50A0F868501CE00823082405686F
:103FF000AD68C5F342610568AD686A0F0A4DAD5CF6
:1040000015FB04F5094EB65C95FBF6F5A0F86A5071
:10401000054D6D5C15FB03F5044E765C95FBF6F5DE
:10402000A0F8685070BD0000AA5D0008B25D0008ED
:1040300090F8281001F0010139B10168496821F4B4
:104040000031C26A11430268516090F8281001F0F3
:104050000201022907D10168496821F48031026B0D
:1040600011430268516090F8281001F004010429FE
:1040700007D10168496821F48021426B114302682D
:10408000516090F8281001F00801082907D1016853
:10409000496821F40041826B11430268516090F835
:1040A000281001F01001102907D10168896821F456
:1040B0008051C26B11430268916090F8281001F0A2
:1040C0002001202907D10168896821F40051026C80
:1040D00011430268916090F8281001F040014029D6
:1040E00013D10168496821F48011426C11430268C0
:1040F0005160416CB1F5801F07D10168496821F416
:10410000C001826C11430268516090F8281001F0E0
:104110008001802907D10168496821F40021C26C1F
:10412000114302685160704738B504460020C4F856
:104130008C00FCF725FD05462068006800F00800AB
:1041400008280CD16FF07E402B4600224FF400115E
:104150000090204600F0E6F908B1032038BD206841
:10416000006800F0040004280CD16FF07E402B465C
:1041700000224FF480010090204600F0D3F908B1EE
:104180000320EBE72020C4F88400C4F88800002056
:10419000E06600BF84F8800000BF00BFDEE70000DB
:1041A0002DE9FE4F044600200290D4492068884241
:1041B00000D100E000BF2169A0680843616908439D
:1041C000E16940EA010820680068CD49084040EAFA
:1041D0000800216808602068406820F44050E168C9
:1041E000084321684860D4F81880C4492068884290
:1041F00002D0206A40EA080820688068C149084067
:1042000040EA0800216888602068C06A20F00F003A
:10421000616A08432168C86200BFBB4920688842C0
:1042200016D1BA48006800F0030030B1012808D068
:10423000022804D0032808D105E0012507E0022563
:1042400005E0042503E0082501E0102500BF6FE02C
:10425000AF492068884216D1AC48006800F00C00D5
:1042600030B1042808D0082804D00C2808D105E073
:10427000002507E0022505E0042503E0082501E00C
:10428000102500BF54E0A3492068884216D19F48FA
:10429000006800F0300030B1102808D0202804D089
:1042A000302808D105E0002507E0022505E00425B7
:1042B00003E0082501E0102500BF39E09649206899
:1042C000884216D19148006800F0C00030B1402803
:1042D00008D0802804D0C02808D105E0002507E0D8
:1042E000022505E0042503E0082501E0102500BFB4
:1042F0001EE082492068884219D18448006800F491
:10430000406048B1B0F5806F0AD0B0F5006F05D0BD
:10431000B0F5406F08D105E0002507E0022505E073
:10432000042503E0082501E0102500BF00E010256A
:1043300000BF72492068884259D135B1022D08D09A
:10434000042D08D0082D0DD109E0FDF755F80646DB
:104350000CE0724E0AE0FDF773F8064606E04FF4F3
:10436000004603E000260120029000BF00BF002E9F
:1043700010D06B49606A31F81000B6FBF0F9606844
:1043800000EB4000484503D860680003484502D26E
:1043900001200290A6E06249606A31F810C06246CE
:1043A000002330461946FBF733FF4FF4807C002290
:1043B000A0FB0C3B01FB0CB100FB02116068400844
:1043C00018185141CDE90001D4F804C06246002319
:1043D000FBF71EFF0746B7F5407F05D3B7F5801FF3
:1043E00002D22068C7607DE0012002907AE0E06997
:1043F000B0F5004F3FD1092D17D2DFE805F00509D0
:104400000D160F1616161300FCF7F6FF064610E001
:10441000FDF704F806460CE0404E0AE0FDF710F800
:10442000064606E04FF4004603E000260120029015
:1044300000BF00BF86B33A49606A31F81000B6FB8E
:10444000F0F04000616800EB5100B0FBF1F7102F75
:104450000ED3B7F5803F0BD24FF6F07007EA000A93
:10446000C7F342004AEA000A2068C0F80CA039E00D
:104470000120029036E0092D18D2DFE805F0050989
:104480000E17101717171400FCF7B6FF064611E0B9
:10449000FCF7C4FF06460DE024E0204E0AE0FCF7DE
:1044A000CFFF064606E04FF4004603E00026012059
:1044B000029000BF00BFAEB11949606A31F8100028
:1044C000B6FBF0F0616800EB5100B0FBF1F7102F84
:1044D00006D3B7F5803F03D2B8B22168C86001E0C7
:1044E000012002900120A4F86A00A4F868000020CE
:1044F000206760670298BDE8FE8F000000800040E2
:10450000F369FFCFFFF4FF1100380140881002402B
:104510000044004000480040004C00400024F400EB
:10452000925D00082DE9F04104460D461746984675
:10453000069E6AE0701C002867D0FCF721FBA0EB08
:104540000800B04200D846BB00BF00BF216851E858
:10455000001F21F4D070226842E800010029F5D143
:1045600000BF00BF00BF2168083151E8001F21F0E3
:1045700001002168083141E80002002AF3D100BFA0
:104580002020C4F88400C4F8880000BF002084F80C
:10459000800000BF0320BDE8F0812068006800F0C3
:1045A000040088B32068C069C0F3C02060B34FF432
:1045B00000602168086200BF00BF216851E8001F49
:1045C00021F4D070226842E800010029F5D100BF33
:1045D00000BF00BF2168083151E8001F21F0010031
:1045E0002168083141E80002002AF3D100BF2020F1
:1045F00044F8840F6060A060843C00BF002084F811
:10460000800000BF0320C6E7FFE72068C06928409C
:10461000A84201D1012000E00020B8428AD0002049
:10462000B9E700BFFEE708B569460020FFF73CF890
:104630009DF800001E2801D0012008BD0020FCE7E5
:1046400000B52DED048B87B00321412000F0EAF87E
:10465000A721402000F0E6F80A20FCF791F90D218F
:104660006D2000F0DFF86420FCF78AF904A8FEF75B
:10467000CFFE09216D2000F0D5F86420FCF780F909
:1046800001A8FEF7C5FE00216D2000F0CBF86420E4
:10469000FCF776F99DED040ADDED010A30EE600AC3
:1046A00010EE101A0846FBF77EFF41EC190BB0EE36
:1046B000490AF0EE690A00F07FFCB0EE408AF0EEA5
:1046C000608A9FED330B53EC102B51EC180BFBF76A
:1046D0007DFF3FD39DED050ADDED020A30EE600A55
:1046E00010EE101A0846FBF75EFF41EC190BB0EE16
:1046F000490AF0EE690A00F05FFCB0EE408AF0EE85
:10470000608A9FED230B53EC102B51EC180BFBF739
:104710005DFF1FD39DED060ADDED030A30EE600A52
:1047200010EE101A0846FBF73EFF41EC190BB0EEF5
:10473000490AF0EE690A00F03FFCB0EE408AF0EE64
:10474000608A9FED130B53EC102B51EC180BFBF709
:104750003DFF04D2022007B0BDEC048B00BDB621A2
:104760007E2000F05FF83220FCF70AF904217D205A
:1047700000F058F800217C2000F054F8002141207E
:1047800000F050F88C21402000F04CF80020E2E7C7
:10479000000000A09999B93F08B569460020FEF7CE
:1047A000BFFF9DF800000F2801D0042008BD0020A5
:1047B000FCE71CB50020019001213C2000F066F8C8
:1047C00008E001A93C20FEF7ABFF9DF80400C0F310
:1047D000400001909DF804000028F2D069463C207A
:1047E000FEF79EFF9DF80000C0F3800000909DF84A
:1047F000000008B108201CBDB621142000F046F8C6
:104800003220FCF7BDF80021112000F03FF8002114
:104810000F2000F03BF80221102000F037F80020B4
:10482000E9E7000038B504460D460022042115488A
:10483000FCF7A0F904F07F0000904FF47A73012296
:1048400069461148FDF78BFA00BF0F48FDF7F8F8ED
:104850000328FAD000954FF47A73012269460A487A
:10486000FDF77DFA00BF0848FDF7EAF80328FAD003
:104870000120FCF785F8012204210248FCF77AF9AF
:1048800038BD0000000400485400002038B504463C
:104890000D46002201211548FCF76CF904F07F0059
:1048A00000904FF47A73012269461148FDF757FAD8
:1048B00000BF0F48FDF7C4F80328FAD000954FF465
:1048C0007A73012269460A48FDF749FA00BF084891
:1048D000FDF7B6F80328FAD00120FCF751F80122C1
:1048E00011460248FCF746F938BD000000040048B4
:1048F000540000200FB4054B10B503A9044A0298D8
:1049000000F0E2FC10BC5DF814FB0000115A000836
:104910004C00002003B401984100009850EAC120E7
:1049200018BF04204A0D18BF40F0010040F2FF728A
:10493000B2EB515F08BF40F00200012808BF05201C
:1049400002B0704702480068C0F3022070470000C0
:104950000CED00E010B5002804DB0A07130E054A31
:10496000135406E00A07140E034A00F00F031B1F3E
:10497000D45410BD00E400E018ED00E00000000099
:1049800070B5C1482DED020B2DED0E8B82B0119D3F
:1049900025F000449FEDBEDB9FEDBFEB84423EDB84
:1049A000A4F140511098A1F17F6108430FD0BC4899
:1049B000844202DC28D1109830B39DED100B02B078
:1049C000BDEC0E8B02B0BDE8704000F07BBB9DEDEE
:1049D000100B53EC1D2B51EC100BFBF703FD9DED61
:1049E000100B41EC180B53EC1E2B51EC100BFBF78A
:1049F000F9FC53EC182BFBF74EFC41EC100B02B00A
:104A0000BDEC0E8B02B070BD012000F095FB02B032
:104A1000BDEC0E8B02B0BDE8704000F05DBBA1485C
:104A20009FEDA18B844256DA9DED100BB4F1795FB6
:104A30000ADA51EC100BFFF76DFF042808BF00F0F5
:104A40005BFB9DED100BDAE753EC102B51EC100BD8
:104A5000FBF7C8FC41EC190B95480621B0EE490A5A
:104A6000F0EE690A784400F0B1FA53EC192B51ECDE
:104A7000100BFBF7B7FC41EC1A0B8E48B0EE490A5D
:104A8000F0EE690A0421784400F0A0FA53EC192BE7
:104A900051EC100BFBF7A6FC53EC182BFBF7FBFBC0
:104AA00041EC100B51EC1A0B53EC102BFBF70CFDE7
:104AB000CDE900019DED000B53EC102B9DED100B8B
:104AC00051EC100BFBF78EFC9DED101B53EC112BE2
:104AD000FBF7E1FBD2E09DED100B51EC100B00F069
:104AE0008AFF53EC182BFBF77AFC9FED730BCDE993
:104AF000000153EC102B9DED000B51EC100BFBF75C
:104B000071FC41EC190B6E480621B0EE490AF0EE3B
:104B1000690A784400F05AFA53EC192B51EC100B47
:104B2000FBF760FC41EC1B0B6648B0EE490AF0EE67
:104B3000690A0421784400F049FA53EC192B51EC2E
:104B4000100BFBF74FFC53EC182BFBF7A4FB41ECCD
:104B50001C0B51EC190B01F0E5F841EC180B5A480D
:104B60009FED5BABA04222DC53EC1C2B51EC1B0BEA
:104B7000FBF7AAFCCDE900019DED000B51EC180BF1
:104B800053EC102BFBF72EFC53EC182BFBF783FB9D
:104B900053EC1A2BFBF726FC53EC1D2BFBF71CFCEC
:104BA00053EC1E2BFBF71BFC41EC100B5FE08DED73
:104BB000008B002000909DED000B51EC180B53EC86
:104BC000102BFBF768FB9DED000B41EC1E0B53EC2B
:104BD000102B51EC100BFBF705FC53EC192BFBF7DA
:104BE000FEFB53EC1E2BFBF76FFC41EC190B53EC57
:104BF0001C2B51EC1B0BFBF767FC41EC1B0B53EC24
:104C00001A2B51EC190BFBF7EDFB53EC1D2BFBF7AB
:104C1000E6FB41EC190B53EC1A2B51EC180BFBF78C
:104C2000E1FB53EC1B2BFBF7DDFB53EC192BFBF7E4
:104C3000D3FB9DED000B41EC180B53EC1A2B51EC00
:104C4000100BFBF7CFFB9FED249B53EC192BFBF7CD
:104C5000C6FB41EC100B51EC180B53EC102BFBF77F
:104C6000BBFB53EC192BFBF7BAFB41EC100B002DEF
:104C70003FF7C5AE51EC100B81F0004141EC100B39
:104C8000BDE60000000000000000F03F0000000052
:104C9000075C143326A6913C182D4454FB21F93FA0
:104CA0000000F07F0000E03F000000000000F03F47
:104CB000701300007E130000000000000000E03FC1
:104CC000C2120000D01200003333EF3F000000009A
:104CD0000000000000000040182D4454FB21E93F73
:104CE00070B59B482DED020B2DED068B079D25F031
:104CF0000044A04218DC9748844202DC0AD106989E
:104D000040B19DED060BBDEC068B02B0BDE87040D6
:104D100000F0D8B9002DCCBF9FED8F0B9FED900B0D
:104D2000BDEC068B02B070BD8F48A04215DD8F48E8
:104D3000A042D8BF4FF0FF3458DD9DED060B51EC7B
:104D4000100BFFF7E7FD042808BF00F0D5F99DED33
:104D5000060BBDEC068B02B070BD9DED060B51EC51
:104D6000100B00F048FECDE9060181489FED828BD3
:104D7000A0423CDD8248A0421FDD00249FED82ABB3
:104D80009DED060B53EC1A2B51EC100BFBF783FA3D
:104D90009DED060B41EC190B53EC1A2B51EC100B4B
:104DA000FBF720FB53EC182BFBF716FB53EC192BEE
:104DB000FBF78AFBCDE9060149E09DED060B0124D6
:104DC00053EC182B51EC100BFBF765FA9DED060B1D
:104DD00041EC190B53EC182B51EC100BFBF7FCFAC0
:104DE00053EC192BFBF770FBCDE906012FE0684867
:104DF000A0421FDD02249FED689B9DED060B53EC46
:104E0000192B51EC100BFBF7EDFA53EC182BFBF7B9
:104E100042FA9DED060B41EC180B53EC192B51ECAB
:104E2000100BFBF7D9FA53EC182BFBF74DFBCDE930
:104E300006010CE09DED060B032453EC102B9FEDB7
:104E4000580B51EC100BFBF73FFBCDE906019DED34
:104E5000060B53EC102B51EC100BFBF7C3FA41EC93
:104E6000180B53EC182BFBF7BDFA41EC190B4E480D
:104E70000621B0EE490AF0EE690A784400F0A6F87F
:104E800053EC182B51EC100BFBF7ACFA41EC180B60
:104E90004648B0EE490AF0EE690A0521784400F070
:104EA00095F853EC192B51EC100BFBF79BFA41ECE6
:104EB000100B51EC180B53EC102B002C0EDAFBF7F7
:104EC000EAF99DED061B53EC112BFBF78BFA9DEDD8
:104ED000061B53EC112BFBF782FA35E0FBF7DBF9ED
:104EE0009DED061B53EC112BFBF77CFA41EC100BEC
:104EF0002F48784400EBC40090ED001B51EC100BE0
:104F000053EC112BFBF768FA9DED061B53EC112BAC
:104F1000FBF762FA41EC100B2648784400EBC40022
:104F200090ED001B51EC100B53EC112BFBF757FAD3
:104F300041EC100B002DA2BFBDEC068B02B070BD82
:104F400051EC100B81F0004141EC100B01E7000027
:104F5000000010440000F07F182D4454FB21F93F5D
:104F6000182D4454FB21F9BF0000DC3F0000203E17
:104F70000000F33F00000000000000000000F03FD0
:104F80000000E63F000000000000000000000040BC
:104F90000080034000000000000000000000F83F17
:104FA000000000000000F0BF12100000C80F000059
:104FB000520F00000A0F00002DED020B019820F0A7
:104FC000004001909DED000B02B0704770B50446A3
:104FD0002DED028B4D1E00EBC500B0EE408AF0EEC9
:104FE000608A90ED000B35F0060017D053EC182BBB
:104FF00051EC100BFBF7F6F941EC100B6D1E04EBB6
:10500000C50090ED001B51EC100B53EC112BFBF77E
:1050100042F941EC100B35F00600E7D1022D36D0F5
:10502000042D1CD0062D1CBFBDEC028B70BD53ECB3
:10503000182B51EC100BFBF7D5F994ED0A1B53EC30
:10504000112BFBF728F953EC182BFBF7CBF994ED58
:10505000081B53EC112BFBF71EF941EC100B53EC22
:10506000182B51EC100BFBF7BDF994ED061B53EC1C
:10507000112BFBF710F953EC182BFBF7B3F994ED58
:10508000040B53EC102BFBF706F941EC100B53EC1F
:10509000182B51EC100BFBF7A5F994ED021B53EC08
:1050A000112BFBF7F8F853EC182BFBF79BF994ED59
:1050B000001B53EC112BFBF7EEF8BDEC028B41EC1F
:1050C000100B70BD10B553EC102B51EC100BFBF70F
:1050D000E2F841EC100B10BD9FED050B10B553EC41
:1050E000102B51EC100BFBF7EFF941EC100B10BD3E
:1050F00000000000000000009FED050B10B553EC10
:10510000102B51EC100BFBF76DF941EC100B10BD9F
:10511000000000000000001002E008C8121F08C1D3
:10512000002AFAD170477047002001E001C1121F28
:10513000002AFBD170470000014908607047000059
:10514000500000202DE9FF5F82B00021DDE904302E
:10515000020DDDF840B0034318D044F61050A2F21F
:10516000FF3242431514119801281FD0A5EB0B0004
:10517000401C5FEA000A4FF000064E4FDFF83891FE
:10518000B046504615D5CAF1000413E01198012429
:105190004AA3012801D16FEA0B010298119AC0E9D4
:1051A0000031C0E9024206B0BDE8F09FCBF100003B
:1051B000DFE704460021404A491842EB0450CDE99C
:1051C000001012E0E00707D032463B464046494611
:1051D000FBF708F98046894632463B461046194699
:1051E000FBF700F906460F466410002CEAD1DDE912
:1051F0000401DDE90023BAF1000F06DAFBF7F2F84B
:1052000042464B46FBF7EEF805E0FBF75DF94246F8
:105210004B46FBF759F904460E460022284BFBF794
:10522000D5F903D84FF0FF30014607E00022254BA7
:1052300020463146FBF72FF8FBF7D7FA102409E098
:10524000002C0ADB0A220023FAF7E2FF039B30322C
:105250001A55641E50EA0102F2D1641C039AC4F18B
:1052600011031444119A012A03D0012208430DD1DD
:105270000AE0084304D000204FF0110B119072E7B0
:10528000A3EB0B056D1E0DE05B4504DD4FF0000246
:1052900005F1010504E003DA4FF00002A5F1010574
:1052A000002AECD002981199C0E90231C0E900450A
:1052B00079E70000000014400000F03F30000000DB
:1052C0000000F0430000E03F2DE9FF4F95B09B4602
:1052D0008946064600250FE2252877D10024274677
:1052E000F84A0121059400E0044316F8013F203BF1
:1052F00001FA03F01042F7D130782A2811D06FF06C
:105300002F033078A0F13002092A16D8059A44F00C
:10531000020402EB820203EB42021044761C059069
:10532000EFE759F8042B0592002A03DA504244F4BF
:105330000054059044F00204761C30782E2816D1D3
:1053400016F8010F44F004042A280DD06FF02F0244
:105350003078A0F13003092B09D807EB870302EB63
:105360004303C718761CF3E759F8047B761C3078A2
:105370006C280FD006DC4C2817D068280DD06A287E
:1053800014D104E0742810D07A280FD10DE044F431
:1053900000140AE044F4801401E044F440147278EC
:1053A000824202D104F58014761C761C307866287F
:1053B0000BD013DC582877D009DC002875D045289D
:1053C000F6D04628F4D047281AD19DE118E063288A
:1053D00035D0642879D0652812D195E1702873D032
:1053E00008DC6728F1D069286FD06E280DD06F28AF
:1053F00006D1B5E073282CD0752875D0782874D0E4
:105400005A46179990476D1C75E1C4F30250022863
:1054100009D003280DD0D9F8001004280DD00D6054
:1054200009F1040967E1D9F80010EA17C1E900524F
:10543000F6E7D9F800100D80F2E70D70F0E719F8E3
:10544000041B8DF8001000208DF80100EA460120B1
:1054500003E059F804AB4FF0FF3061074FF0000153
:1054600002D40DE008F101018846B9420FDA804507
:10547000F8DB1AF808100029F4D108E008F101015E
:1054800088468142FADB1AF808100029F6D10598FF
:105490005B46A0EB080721463846179A00F094FABD
:1054A000284400EB080507E04DE029E10DE01AF87B
:1054B000010B5A4617999047B8F10108F7D25B469D
:1054C00021463846179A13E142E00A220092C4F3BB
:1054D00002524FF0000A022A08D059F804CB032ADE
:1054E0004FEAEC710AD00DE029E02AE009F107014A
:1054F00021F00702F2E802C1914609E00FFA8CFCA4
:105500004FEAEC71042A03D14FFA8CFC4FEAEC719C
:10551000002907DA0A460021DCF1000C61EB0201E8
:105520002D2202E0220504D52B228DF80420012231
:1055300003E0E20701D02022F7E7904659E00A2174
:1055400002E010220DE010214FF0000A00910BE064
:1055500010224FF0000A44F004040827009203E0F0
:1055600008224FF0000A0092C4F30252022A05D02A
:1055700059F804CB0021032A08D009E009F10701FA
:1055800021F00702F2E802C1914605E01FFA8CFC07
:10559000042A01D10CF0FF0C4FF00008220728D597
:1055A000702806D0009B83F0100353EA0A0305D04D
:1055B0000EE040228DF80420012208E05CEA01029E
:1055C00006D030228DF804208DF805000222904686
:1055D000009B83F0080353EA0A030AD15CEA010244
:1055E00001D1620705D530228DF804204FF0010863
:1055F0007F1E582804D034A003900EA802900DE01E
:1056000036A0F9E753466046009AFAF701FE844651
:105610000398825C0298401E029002705CEA0100CE
:10562000F0D1029806A9081A00F1200A600702D5F5
:1056300024F4803400E00127574502DDA7EB0A007F
:1056400000E0002000EB0A01009005984144401A58
:105650000590E00306D45B462146179A059800F0B2
:10566000B3F90544002706E001A85A46C05D179922
:1056700090476D1C7F1C4745F6DBE0030CD55B466D
:105680002146179A059800F09FF9054404E0302060
:105690005A46179990476D1C0099481E00900029A2
:1056A000F5DC08E0029802995A460078491C0291FC
:1056B000179990476D1CBAF10001AAF1010AF1DCBB
:1056C00065E10000092801003031323334353637C6
:1056D000383961626364656600000000303132333E
:1056E00034353637383941424344454600000000DE
:1056F00000F058F90544761C307800287FF4ECADB2
:1057000019B02846BDE8F08F620700D4062709F1DA
:10571000070222F0070CFCE80223E14603F00048F0
:105720005FEA080C02D00FF2702C0DE05FEA045C17
:1057300002D50FF2682C07E05FEAC47C02D00FF2BA
:10574000602C01E0AFF2700C4FF0FF3823F0004303
:10575000CDF850C065280CD006DC452809D0462875
:105760001DD047283DD13DE0662818D067287ED15E
:1057700038E00021112F01DB112000E0781CCDE979
:10578000000106A90EA8FFF7DDFCDDE90F010E9A66
:1057900003910021009207F1010A04914DE04FF0BE
:1057A00000400097CDE9011006A90EA8FFF7CAFC3A
:1057B000DDE90F0203920E9B11990022DDF80CA087
:1057C0000093049211B9791C00EB010AB7EB0A00AF
:1057D00004D4C0F1FF3007F1010A0490AAEB0700DE
:1057E000019044E0012F00DA01270021112F01DD93
:1057F000112000E03846CDE9000106A90EA8FFF708
:10580000A1FCDDE90F010E9A0391002104910092A1
:10581000BA4621070CD40399514500DA8A46BAF1F9
:10582000010F05DD009AAAF10101515C302908D071
:10583000B84202DA10F1040F06DA0121CDE90110B5
:1058400015E0AAF10101E9E7002805DC049901440B
:105850000491AAEB000102E0411C514500DD8A469B
:105860000499401A401C01904FF00040029020071C
:1058700004D40198504501DBCDF8048000208DF858
:105880004F0002980DF14F07B0F1004F25D02B20AB
:105890000E9002984FF0020800280CDA4042029065
:1058A0002D200E9007E00A210298FAF7C3FE30314E
:1058B000029007F8011DB8F10001A8F10108F2DC1F
:1058C00002980028EFD1791E0E980870307800F009
:1058D000200040F0450007F8020D12A8C01B00F19F
:1058E00007081498007800B1012000EB0A01019824
:1058F00001EBE07105984144401A401E0590E00319
:1059000006D45B462146179A059800F05DF80544D9
:105910001498007818B15A46179990476D1CE00307
:1059200024D55B462146179A059800F04DF80544AA
:105930001CE00498002807DBDDE90301884203DD51
:105940000098405C179901E0179930205A4690471B
:10595000049805F10105401C04900198401E019037
:1059600004D12E205A46179990476D1CBAF10001B8
:10597000AAF1010ADDDC05E017F8010B5A46179978
:1059800090476D1CB8F10001A8F10108F4DC5B46FA
:105990002146179A0598ABE62D0000002B00000069
:1059A000200000002DE9F041044600251E46174660
:1059B000880404D405E039462020B0476D1C641EDD
:1059C000F9D52846BDE8F0812DE9F04104460025CF
:1059D0001E469046C80301D5302700E020278804E2
:1059E00004D505E041463846B0476D1C641EF9D524
:1059F0002846BDE8F08182B0CDE9000121F00040E9
:105A000001909DED000B02B051EC100B70470000AF
:105A100000BF054A126802F04002002AF9D0C2B263
:105A2000014B0C331A6070471C380140F0EE400AFD
:105A3000F6EE001A60EEA11AB0EE611AB0EE600A3E
:105A400010EE100A0749A1EB600000EE100A21EEEB
:105A5000002AF7EE081A42EE401A61EE801AB0EE04
:105A6000610A7047DF59375F2DED088B90B000BF9A
:105A700000BFFBF797F8FDF7E4FFFDF793F9FDF79B
:105A8000EDF9FDF713FAFDF78FFAFDF765FAFAF76E
:105A90005FFF8DF83C0026E1934800780028FAD19A
:105AA00003209149087007A8FDF7B2FC0CA8FDF788
:105AB0001DFD0BA8FDF7F6FC9DED093AF0EE432A1B
:105AC0009DED083AB0EE432A9DED073AF0EE431AF9
:105AD0009DED0E3AB0EE431A9DED0D3AF0EE430AFD
